{
  "contractName": "WinjitToken",
  "abi": [
    {
      "constant": true,
      "inputs": [],
      "name": "name",
      "outputs": [
        {
          "name": "",
          "type": "string"
        }
      ],
      "payable": false,
      "stateMutability": "view",
      "type": "function"
    },
    {
      "constant": false,
      "inputs": [
        {
          "name": "_spender",
          "type": "address"
        },
        {
          "name": "_amount",
          "type": "uint256"
        }
      ],
      "name": "approve",
      "outputs": [
        {
          "name": "success",
          "type": "bool"
        }
      ],
      "payable": false,
      "stateMutability": "nonpayable",
      "type": "function"
    },
    {
      "constant": true,
      "inputs": [],
      "name": "totalSupply",
      "outputs": [
        {
          "name": "",
          "type": "uint256"
        }
      ],
      "payable": false,
      "stateMutability": "view",
      "type": "function"
    },
    {
      "constant": false,
      "inputs": [
        {
          "name": "_from",
          "type": "address"
        },
        {
          "name": "_to",
          "type": "address"
        },
        {
          "name": "_amount",
          "type": "uint256"
        }
      ],
      "name": "transferFrom",
      "outputs": [
        {
          "name": "success",
          "type": "bool"
        }
      ],
      "payable": false,
      "stateMutability": "nonpayable",
      "type": "function"
    },
    {
      "constant": true,
      "inputs": [],
      "name": "decimals",
      "outputs": [
        {
          "name": "",
          "type": "uint8"
        }
      ],
      "payable": false,
      "stateMutability": "view",
      "type": "function"
    },
    {
      "constant": false,
      "inputs": [
        {
          "name": "_value",
          "type": "uint256"
        }
      ],
      "name": "burn",
      "outputs": [],
      "payable": false,
      "stateMutability": "nonpayable",
      "type": "function"
    },
    {
      "constant": true,
      "inputs": [
        {
          "name": "_owner",
          "type": "address"
        }
      ],
      "name": "balanceOf",
      "outputs": [
        {
          "name": "balance",
          "type": "uint256"
        }
      ],
      "payable": false,
      "stateMutability": "view",
      "type": "function"
    },
    {
      "constant": true,
      "inputs": [],
      "name": "owner",
      "outputs": [
        {
          "name": "",
          "type": "address"
        }
      ],
      "payable": false,
      "stateMutability": "view",
      "type": "function"
    },
    {
      "constant": true,
      "inputs": [],
      "name": "symbol",
      "outputs": [
        {
          "name": "",
          "type": "string"
        }
      ],
      "payable": false,
      "stateMutability": "view",
      "type": "function"
    },
    {
      "constant": false,
      "inputs": [
        {
          "name": "_to",
          "type": "address"
        },
        {
          "name": "_value",
          "type": "uint256"
        }
      ],
      "name": "transfer",
      "outputs": [
        {
          "name": "",
          "type": "bool"
        }
      ],
      "payable": false,
      "stateMutability": "nonpayable",
      "type": "function"
    },
    {
      "constant": true,
      "inputs": [
        {
          "name": "",
          "type": "address"
        }
      ],
      "name": "frozenAccount",
      "outputs": [
        {
          "name": "",
          "type": "bool"
        }
      ],
      "payable": false,
      "stateMutability": "view",
      "type": "function"
    },
    {
      "constant": true,
      "inputs": [
        {
          "name": "_owner",
          "type": "address"
        },
        {
          "name": "_spender",
          "type": "address"
        }
      ],
      "name": "allowance",
      "outputs": [
        {
          "name": "remaining",
          "type": "uint256"
        }
      ],
      "payable": false,
      "stateMutability": "view",
      "type": "function"
    },
    {
      "constant": false,
      "inputs": [],
      "name": "owned",
      "outputs": [],
      "payable": false,
      "stateMutability": "nonpayable",
      "type": "function"
    },
    {
      "constant": false,
      "inputs": [
        {
          "name": "target",
          "type": "address"
        },
        {
          "name": "freeze",
          "type": "bool"
        }
      ],
      "name": "freezeAccount",
      "outputs": [],
      "payable": false,
      "stateMutability": "nonpayable",
      "type": "function"
    },
    {
      "constant": false,
      "inputs": [
        {
          "name": "newOwner",
          "type": "address"
        }
      ],
      "name": "transferOwnership",
      "outputs": [],
      "payable": false,
      "stateMutability": "nonpayable",
      "type": "function"
    },
    {
      "inputs": [
        {
          "name": "initialSupply",
          "type": "uint256"
        },
        {
          "name": "tokenName",
          "type": "string"
        },
        {
          "name": "tokenSymbol",
          "type": "string"
        },
        {
          "name": "decimalUnits",
          "type": "uint8"
        },
        {
          "name": "centralAdmin",
          "type": "address"
        }
      ],
      "payable": false,
      "stateMutability": "nonpayable",
      "type": "constructor"
    },
    {
      "anonymous": false,
      "inputs": [
        {
          "indexed": false,
          "name": "target",
          "type": "address"
        },
        {
          "indexed": false,
          "name": "frozen",
          "type": "bool"
        }
      ],
      "name": "FrozenFunds",
      "type": "event"
    },
    {
      "anonymous": false,
      "inputs": [
        {
          "indexed": true,
          "name": "burner",
          "type": "address"
        },
        {
          "indexed": false,
          "name": "value",
          "type": "uint256"
        }
      ],
      "name": "Burn",
      "type": "event"
    },
    {
      "anonymous": false,
      "inputs": [
        {
          "indexed": true,
          "name": "owner",
          "type": "address"
        },
        {
          "indexed": true,
          "name": "spender",
          "type": "address"
        },
        {
          "indexed": false,
          "name": "value",
          "type": "uint256"
        }
      ],
      "name": "Approval",
      "type": "event"
    },
    {
      "anonymous": false,
      "inputs": [
        {
          "indexed": true,
          "name": "from",
          "type": "address"
        },
        {
          "indexed": true,
          "name": "to",
          "type": "address"
        },
        {
          "indexed": false,
          "name": "value",
          "type": "uint256"
        }
      ],
      "name": "Transfer",
      "type": "event"
    }
  ],
  "bytecode": "0x606060405234156200001057600080fd5b6040516200149b3803806200149b83398101604052808051906020019091908051820191906020018051820191906020018051906020019091908051906020019091905050838383826002908051906020019062000070929190620001ce565b50816003908051906020019062000089929190620001ce565b5080600460006101000a81548160ff021916908360ff1602179055505050508460018190555060008173ffffffffffffffffffffffffffffffffffffffff161415156200011657806000806101000a81548173ffffffffffffffffffffffffffffffffffffffff021916908373ffffffffffffffffffffffffffffffffffffffff16021790555062000157565b336000806101000a81548173ffffffffffffffffffffffffffffffffffffffff021916908373ffffffffffffffffffffffffffffffffffffffff1602179055505b84600560008060009054906101000a900473ffffffffffffffffffffffffffffffffffffffff1673ffffffffffffffffffffffffffffffffffffffff1673ffffffffffffffffffffffffffffffffffffffff168152602001908152602001600020819055508460018190555050505050506200027d565b828054600181600116156101000203166002900490600052602060002090601f016020900481019282601f106200021157805160ff191683800117855562000242565b8280016001018555821562000242579182015b828111156200024157825182559160200191906001019062000224565b5b50905062000251919062000255565b5090565b6200027a91905b80821115620002765760008160009055506001016200025c565b5090565b90565b61120e806200028d6000396000f3006060604052600436106100db576000357c0100000000000000000000000000000000000000000000000000000000900463ffffffff16806306fdde03146100e0578063095ea7b31461016e57806318160ddd146101c857806323b872dd146101f1578063313ce5671461026a57806342966c681461029957806370a08231146102bc5780638da5cb5b1461030957806395d89b411461035e578063a9059cbb146103ec578063b414d4b614610446578063dd62ed3e14610497578063df32754b14610503578063e724529c14610518578063f2fde38b1461055c575b600080fd5b34156100eb57600080fd5b6100f3610595565b6040518080602001828103825283818151815260200191508051906020019080838360005b83811015610133578082015181840152602081019050610118565b50505050905090810190601f1680156101605780820380516001836020036101000a031916815260200191505b509250505060405180910390f35b341561017957600080fd5b6101ae600480803573ffffffffffffffffffffffffffffffffffffffff16906020019091908035906020019091905050610633565b604051808215151515815260200191505060405180910390f35b34156101d357600080fd5b6101db610725565b6040518082815260200191505060405180910390f35b34156101fc57600080fd5b610250600480803573ffffffffffffffffffffffffffffffffffffffff1690602001909190803573ffffffffffffffffffffffffffffffffffffffff1690602001909190803590602001909190505061072b565b604051808215151515815260200191505060405180910390f35b341561027557600080fd5b61027d6109cd565b604051808260ff1660ff16815260200191505060405180910390f35b34156102a457600080fd5b6102ba60048080359060200190919050506109e0565b005b34156102c757600080fd5b6102f3600480803573ffffffffffffffffffffffffffffffffffffffff16906020019091905050610b15565b6040518082815260200191505060405180910390f35b341561031457600080fd5b61031c610b5e565b604051808273ffffffffffffffffffffffffffffffffffffffff1673ffffffffffffffffffffffffffffffffffffffff16815260200191505060405180910390f35b341561036957600080fd5b610371610b83565b6040518080602001828103825283818151815260200191508051906020019080838360005b838110156103b1578082015181840152602081019050610396565b50505050905090810190601f1680156103de5780820380516001836020036101000a031916815260200191505b509250505060405180910390f35b34156103f757600080fd5b61042c600480803573ffffffffffffffffffffffffffffffffffffffff16906020019091908035906020019091905050610c21565b604051808215151515815260200191505060405180910390f35b341561045157600080fd5b61047d600480803573ffffffffffffffffffffffffffffffffffffffff16906020019091905050610f36565b604051808215151515815260200191505060405180910390f35b34156104a257600080fd5b6104ed600480803573ffffffffffffffffffffffffffffffffffffffff1690602001909190803573ffffffffffffffffffffffffffffffffffffffff16906020019091905050610f56565b6040518082815260200191505060405180910390f35b341561050e57600080fd5b610516610fdd565b005b341561052357600080fd5b61055a600480803573ffffffffffffffffffffffffffffffffffffffff16906020019091908035151590602001909190505061101f565b005b341561056757600080fd5b610593600480803573ffffffffffffffffffffffffffffffffffffffff16906020019091905050611144565b005b60028054600181600116156101000203166002900480601f01602080910402602001604051908101604052809291908181526020018280546001816001161561010002031660029004801561062b5780601f106106005761010080835404028352916020019161062b565b820191906000526020600020905b81548152906001019060200180831161060e57829003601f168201915b505050505081565b600081600760003373ffffffffffffffffffffffffffffffffffffffff1673ffffffffffffffffffffffffffffffffffffffff16815260200190815260200160002060008573ffffffffffffffffffffffffffffffffffffffff1673ffffffffffffffffffffffffffffffffffffffff168152602001908152602001600020819055508273ffffffffffffffffffffffffffffffffffffffff163373ffffffffffffffffffffffffffffffffffffffff167f8c5be1e5ebec7d5bd14f71427d1e84f3dd0314c0f7b2291e5b200ac8c7c3b925846040518082815260200191505060405180910390a36001905092915050565b60015481565b600081600560008673ffffffffffffffffffffffffffffffffffffffff1673ffffffffffffffffffffffffffffffffffffffff16815260200190815260200160002054101580156107f8575081600760008673ffffffffffffffffffffffffffffffffffffffff1673ffffffffffffffffffffffffffffffffffffffff16815260200190815260200160002060003373ffffffffffffffffffffffffffffffffffffffff1673ffffffffffffffffffffffffffffffffffffffff1681526020019081526020016000205410155b80156108045750600082115b801561088f5750600560008473ffffffffffffffffffffffffffffffffffffffff1673ffffffffffffffffffffffffffffffffffffffff1681526020019081526020016000205482600560008673ffffffffffffffffffffffffffffffffffffffff1673ffffffffffffffffffffffffffffffffffffffff1681526020019081526020016000205401115b156109c15781600560008673ffffffffffffffffffffffffffffffffffffffff1673ffffffffffffffffffffffffffffffffffffffff1681526020019081526020016000206000828254039250508190555081600760008673ffffffffffffffffffffffffffffffffffffffff1673ffffffffffffffffffffffffffffffffffffffff16815260200190815260200160002060003373ffffffffffffffffffffffffffffffffffffffff1673ffffffffffffffffffffffffffffffffffffffff1681526020019081526020016000206000828254039250508190555081600560008573ffffffffffffffffffffffffffffffffffffffff1673ffffffffffffffffffffffffffffffffffffffff16815260200190815260200160002060008282540192505081905550600190506109c6565b600090505b9392505050565b600460009054906101000a900460ff1681565b6000600560003373ffffffffffffffffffffffffffffffffffffffff1673ffffffffffffffffffffffffffffffffffffffff168152602001908152602001600020548211151515610a3057600080fd5b33905081600560008373ffffffffffffffffffffffffffffffffffffffff1673ffffffffffffffffffffffffffffffffffffffff1681526020019081526020016000205403600560008373ffffffffffffffffffffffffffffffffffffffff1673ffffffffffffffffffffffffffffffffffffffff1681526020019081526020016000208190555081600154036001819055508073ffffffffffffffffffffffffffffffffffffffff167fcc16f5dbb4873280815c1ee09dbd06736cffcc184412cf7a71a0fdb75d397ca5836040518082815260200191505060405180910390a25050565b6000600560008373ffffffffffffffffffffffffffffffffffffffff1673ffffffffffffffffffffffffffffffffffffffff168152602001908152602001600020549050919050565b6000809054906101000a900473ffffffffffffffffffffffffffffffffffffffff1681565b60038054600181600116156101000203166002900480601f016020809104026020016040519081016040528092919081815260200182805460018160011615610100020316600290048015610c195780601f10610bee57610100808354040283529160200191610c19565b820191906000526020600020905b815481529060010190602001808311610bfc57829003601f168201915b505050505081565b6000600660003373ffffffffffffffffffffffffffffffffffffffff1673ffffffffffffffffffffffffffffffffffffffff16815260200190815260200160002060009054906101000a900460ff16151515610c7c57600080fd5b6000600560003373ffffffffffffffffffffffffffffffffffffffff1673ffffffffffffffffffffffffffffffffffffffff16815260200190815260200160002054111515610cca57600080fd5b81600560003373ffffffffffffffffffffffffffffffffffffffff1673ffffffffffffffffffffffffffffffffffffffff1681526020019081526020016000205410151515610d1857600080fd5b600073ffffffffffffffffffffffffffffffffffffffff168373ffffffffffffffffffffffffffffffffffffffff1614151515610d5457600080fd5b600082111515610d6357600080fd5b600560008473ffffffffffffffffffffffffffffffffffffffff1673ffffffffffffffffffffffffffffffffffffffff1681526020019081526020016000205482600560008673ffffffffffffffffffffffffffffffffffffffff1673ffffffffffffffffffffffffffffffffffffffff168152602001908152602001600020540110151515610df257600080fd5b3373ffffffffffffffffffffffffffffffffffffffff168373ffffffffffffffffffffffffffffffffffffffff1614151515610e2d57600080fd5b81600560003373ffffffffffffffffffffffffffffffffffffffff1673ffffffffffffffffffffffffffffffffffffffff1681526020019081526020016000206000828254039250508190555081600560008573ffffffffffffffffffffffffffffffffffffffff1673ffffffffffffffffffffffffffffffffffffffff168152602001908152602001600020600082825401925050819055508273ffffffffffffffffffffffffffffffffffffffff163373ffffffffffffffffffffffffffffffffffffffff167fddf252ad1be2c89b69c2b068fc378daa952ba7f163c4a11628f55a4df523b3ef846040518082815260200191505060405180910390a36001905092915050565b60066020528060005260406000206000915054906101000a900460ff1681565b6000600760008473ffffffffffffffffffffffffffffffffffffffff1673ffffffffffffffffffffffffffffffffffffffff16815260200190815260200160002060008373ffffffffffffffffffffffffffffffffffffffff1673ffffffffffffffffffffffffffffffffffffffff16815260200190815260200160002054905092915050565b336000806101000a81548173ffffffffffffffffffffffffffffffffffffffff021916908373ffffffffffffffffffffffffffffffffffffffff160217905550565b6000809054906101000a900473ffffffffffffffffffffffffffffffffffffffff1673ffffffffffffffffffffffffffffffffffffffff163373ffffffffffffffffffffffffffffffffffffffff1614151561107a57600080fd5b80600660008473ffffffffffffffffffffffffffffffffffffffff1673ffffffffffffffffffffffffffffffffffffffff16815260200190815260200160002060006101000a81548160ff0219169083151502179055507f48335238b4855f35377ed80f164e8c6f3c366e54ac00b96a6402d4a9814a03a58282604051808373ffffffffffffffffffffffffffffffffffffffff1673ffffffffffffffffffffffffffffffffffffffff168152602001821515151581526020019250505060405180910390a15050565b6000809054906101000a900473ffffffffffffffffffffffffffffffffffffffff1673ffffffffffffffffffffffffffffffffffffffff163373ffffffffffffffffffffffffffffffffffffffff1614151561119f57600080fd5b806000806101000a81548173ffffffffffffffffffffffffffffffffffffffff021916908373ffffffffffffffffffffffffffffffffffffffff160217905550505600a165627a7a723058209fb46eb0e3eb5228e37b8d8f835c3716257d5c3a266b42878f3b504a58a5bdea0029",
  "source": "pragma solidity ^0.4.11;\r\n\r\nimport \"./Owned.sol\";\r\n \r\nimport \"./BurnableToken.sol\";\r\n\r\n\r\n\r\n//This is the main Token Contract derived from the other two contracts\r\n\r\ncontract WinjitToken is Owned, BurnableToken {\r\n\r\n    mapping (address => bool) public frozenAccount;\r\n    mapping (address => mapping (address => uint256)) allowed;\r\n    event FrozenFunds(address target, bool frozen);\r\n\r\n \r\n    //This is the main token to be prepopulated with all the parameters\r\n\tfunction WinjitToken(uint256 initialSupply, string tokenName, string tokenSymbol, uint8 decimalUnits, address centralAdmin) \r\n\tDetailedERC20 (tokenName,tokenSymbol, decimalUnits ) public{\r\n\t\ttotalSupply = initialSupply;\r\n\t\tif(centralAdmin != 0)\r\n\t\t\towner = centralAdmin;\r\n\t\telse\r\n\t\t\towner = msg.sender;\r\n\t\tbalancesOf[owner] = initialSupply;\r\n\t\ttotalSupply = initialSupply;\t\r\n\t}\r\n\r\n    //This function is used to tranfer tokens to a particular address \r\n\tfunction transfer(address _to, uint256 _value) public returns (bool){\r\n    require(!frozenAccount[msg.sender]);\r\n\t\trequire(balancesOf[msg.sender] > 0);\r\n\t\trequire(balancesOf[msg.sender] >= _value);\r\n\t\trequire(_to != address(0)); //check if address is set and non-empty\r\n\t\trequire(_value > 0);\r\n\t\trequire(balancesOf[_to] + _value >= balancesOf[_to]);\r\n\t\trequire(_to != msg.sender);\r\n\t\tbalancesOf[msg.sender] -= _value;\r\n\t\tbalancesOf[_to] += _value;\r\n\t\tTransfer(msg.sender, _to, _value);\r\n        return true;\r\n\t}\r\n\r\n\t// Send _value amount of tokens from address _from to address _to\r\n    // The transferFrom method is used for a withdraw workflow, allowing contracts to send\r\n    // tokens on your behalf, for example to \"deposit\" to a contract address and/or to charge\r\n    // fees in sub-currencies; the command should fail unless the _from account has\r\n    // deliberately authorized the sender of the message via some mechanism; we propose\r\n    // these standardized APIs for approval:\r\n    function transferFrom(\r\n         address _from,\r\n         address _to,\r\n         uint256 _amount\r\n     ) public returns (bool success) {\r\n         if (balancesOf[_from] >= _amount\r\n             && allowed[_from][msg.sender] >= _amount\r\n             && _amount > 0\r\n             && balancesOf[_to] + _amount > balancesOf[_to]) {\r\n             balancesOf[_from] -= _amount;\r\n             allowed[_from][msg.sender] -= _amount;\r\n             balancesOf[_to] += _amount;\r\n             return true;\r\n         } else {\r\n             return false;\r\n         }\r\n    }\r\n    \r\n\t  \r\n\r\n    function freezeAccount(address target, bool freeze) public onlyOwner {\r\n        frozenAccount[target] = freeze;\r\n        FrozenFunds(target, freeze);\r\n    }\r\n\r\n\r\n    // Allow _spender to withdraw from your account, multiple times, up to the _value amount.\r\n     // If this function is called again it overwrites the current allowance with _value.\r\n     function approve(address _spender, uint256 _amount) public returns (bool success) {\r\n         allowed[msg.sender][_spender] = _amount;\r\n        Approval(msg.sender, _spender, _amount);\r\n         return true;\r\n     } \r\n\r\n     function allowance(address _owner, address _spender) public constant returns (uint256 remaining) {\r\n         return allowed[_owner][_spender];\r\n    }\r\n    \r\n}\r\n\r\n",
  "sourcePath": "E:\\Workspaces\\Blockchain\\Samples\\ICO\\contracts\\Token\\WinjitToken.sol",
  "compiler": {
    "name": "solc",
    "version": "0.4.18+commit.9cf6e910.Emscripten.clang"
  },
  "schemaVersion": "1.0.1",
  "updatedAt": "2017-12-12T08:30:04.981Z"
}